:020000040000FA
:100000000C945D000C9485000C9485000C94850084
:100010000C9485000C9485000C9485000C9485004C
:100020000C9485000C9485000C9485000C9485003C
:100030000C9485000C9485000C9485000C9485002C
:100040000C9451040C9485000C9485000C9485004C
:100050000C9485000C9485000C9485000C9485000C
:100060000C949B040C948500000000080002010021
:100070000003040700000000000000000000000072
:10008000250028002B0000000000240027002A0083
:10009000040404040404040402020202020203032E
:1000A0000303030301020408102040800102040836
:1000B0001020010204081020BA0511241FBECFEF42
:1000C000D8E0DEBFCDBF11E0A0E0B1E0E8EBFEE09C
:1000D00002C005900D92A635B107D9F722E0A6E53A
:1000E000B1E001C01D92A133B207E1F710E0CDE508
:1000F000D0E004C02197FE010E945407CC35D107FF
:10010000C9F70E94DA050C945A070C940000089570
:100110000895AF92BF92CF92DF92EF92FF920F932A
:100120001F93CF93DF936C017B018B01040F151F8D
:10013000EB015E01AE18BF08C017D10759F06991F5
:10014000D601ED91FC910190F081E02DC601099559
:10015000892B79F7C501DF91CF911F910F91FF9006
:10016000EF90DF90CF90BF90AF90089590E0FC01AA
:10017000E859FF4F2491FC01EC55FF4F3491FC01ED
:10018000E057FF4FE491EE23C9F0222339F02330EA
:1001900001F1A8F4213019F1223029F1F0E0EE0F3D
:1001A000FF1FE458FF4FA591B4918FB7F894EC91DD
:1001B000611126C030953E233C938FBF08952730B0
:1001C000A9F02830C9F0243049F7809180008F7D54
:1001D00003C0809180008F7780938000DFCF84B54B
:1001E0008F7784BDDBCF84B58F7DFBCF8091B0004E
:1001F0008F778093B000D2CF8091B0008F7DF9CF00
:100200003E2BDACF3FB7F89480910D0290910E0209
:10021000A0910F02B091100226B5A89B05C02F3FF8
:1002200019F00196A11DB11D3FBFBA2FA92F982F1C
:100230008827BC01CD01620F711D811D911D42E017
:10024000660F771F881F991F4A95D1F708958F92DF
:100250009F92AF92BF92CF92DF92EF92FF924B01AB
:100260005C010E9402016B017C010E9402016C1979
:100270007D098E099F09683E734081059105A8F3A9
:1002800021E0821A9108A108B10888EEC80E83E027
:10029000D81EE11CF11C81149104A104B10429F7BA
:1002A000FF90EF90DF90CF90BF90AF909F908F9096
:1002B0000895089520919701260F3327331F213287
:1002C0003105ECF42091E001FC0190E080E0243065
:1002D00069F082E00895A09197012191AC014958FD
:1002E0005E4FA40FB52FB11D2C930196861798F37E
:1002F00080919701680F6093970180E0089581E0F5
:1003000008951092E00181E08093DF011092BA011C
:1003100061E082E10E94B60061E083E10E94B600E4
:10032000E9EBF0E080818E7F808380818D7F808308
:1003300088E48093B80085E48093BC000895CF934F
:10034000DF9391E0909376018823B9F0C091B800D3
:10035000D091BA008091BC008A7B8093BC0060E0A1
:1003600082E10E94B60060E083E10E94B6000E9434
:100370008101D093BA00C093B800DF91CF91089566
:100380000895E091180280911702E81730F4F0E028
:10039000EA5AFE4F808190E008958FEF9FEF089515
:1003A00090911802809117022FEF3FEF981748F4B1
:1003B000E92FF0E0EA5AFE4F208130E09F5F9093F2
:1003C0001802C90108958091170290911802891BA3
:1003D000990B0895CF92DF92EF92FF920F931F93A4
:1003E000CF93DF937C01CB018A012091E601222388
:1003F00089F0EB016B01C40ED51ECC15DD0569F04B
:100400006991D701ED91FC910190F081E02DC70138
:100410000995F3CF642F0E945A01C801DF91CF9153
:100420001F910F91FF90EF90DF90CF900895CF93A1
:10043000DF931F92CDB7DEB769832091E6012223B7
:10044000F9F020911502203258F021E030E0FC0153
:100450003383228390E080E00F90DF91CF91089565
:1004600080911602E82FF0E0E951FE4F99819083C8
:100470008F5F809316028093150281E090E0ECCFAD
:1004800061E0CE0101960E945A01F7CFCF92DF9230
:10049000EF92FF920F931F93CF93DF93FC01C481E0
:1004A00021E02093E601C0930702109216021092F9
:1004B00015028385682B89E192E00E941702D09192
:1004C0001502D13208F092C00E9402016B017C013A
:1004D0008091E001811165C082E08093E00181E0BC
:1004E0008093DF018FEF8093DE011092DD01D093C6
:1004F000DC01A7EEB1E0ECEBF1E080E0D81385C0C1
:100500001092BB018091BB01CC0FC82BC093BB01E3
:100510008091BA01813009F07CC01092BA010E942A
:1005200002016B017C018091BB018093BB00809133
:10053000E2019091E301A091E401B091E501892BE2
:100540008A2B8B2B99F00E9402010091E2011091FD
:10055000E3012091E4013091E5016C197D098E09D8
:100560009F090617170728073907E0F18091BC009B
:1005700083FDD9CF85EC8093BC000E9402016B0102
:100580007C018091E001823009F445C08091DE0158
:100590008F3F61F18091DE01803241F18091DE0177
:1005A00025C08091E2019091E301A091E401B09116
:1005B000E501892B8A2B8B2B09F48ACF0E9402013B
:1005C0000091E2011091E3012091E4013091E501F5
:1005D0006C197D098E099F09061717072807390727
:1005E00008F076CF8091E1010E949F0110921602DF
:1005F000109215021092E601DF91CF911F910F9199
:10060000FF90EF90DF90CF9008959D9191938F5F31
:1006100075CF85EEB0CF8091E2019091E301A0917A
:10062000E401B091E501892B8A2B8B2B09F4A9CF2A
:100630000E9402010091E2011091E3012091E40186
:100640003091E5016C197D098E099F09061717077E
:100650002807390708F095CFC5CF90E080E00895CE
:100660008F929F92AF92BF920F931F93CF93DF937E
:10067000CDB7DEB7A1970FB6F894DEBF0FBECDBFE2
:1006800019A2423008F44AE08E010F5D1F4F842EFC
:10069000912CB12CA12CA50194010E943207E62FC8
:1006A000B901CA01EA3044F5E05DD801EE938D014D
:1006B000232B242B252B79F790E080E0109769F00D
:1006C000FD0101900020E9F73197AF014A1B5B0B58
:1006D000BD0185E292E00E948900A1960FB6F894D0
:1006E000DEBF0FBECDBFDF91CF911F910F91BF90A5
:1006F000AF909F908F900895E95CD7CFFC01019057
:100700000020E9F73197AF01481B590BBC0185E286
:1007100092E00C9489000F931F93CF938C01C62F06
:100720000E9446026C2F6460C8010E9446026C2F32
:100730006B7FC8010E94460283EC90E00197F1F7BD
:10074000CF911F910F9108950F931F93CF93DF9334
:100750008C01D62FC42F607F642B0E948B0380E115
:10076000D89FB00111246C2BC801DF91CF911F914C
:100770000F910C948B0340E061E085E292E00E94CF
:10078000A4038BE39FE10197F1F70895CF93DF93E3
:10079000CDB7DEB728970FB6F894DEBF0FBECDBF3A
:1007A00098E0E0E0F1E0DE01119601900D929A955B
:1007B000E1F790912D02981708F48FEF90E0880FE1
:1007C000991F21E030E02C0F3D1F820F931FFC0189
:1007D0006081606840E085E292E028960FB6F89468
:1007E000DEBF0FBECDBFDF91CF910C94A40341E0DB
:1007F0000E94A40381E090E00895CF92DF92EF92EF
:10080000FF926B017C0141E06DE285E292E00E9483
:10081000A40366277727CB016C197D098E099F09F0
:100820004AE00E9430030196FF90EF90DF90CF9056
:10083000089585ED8093BC008091E2019091E301E1
:10084000A091E401B091E5010796A11DB11D23E03F
:10085000B695A795979587952A95D1F72091BC00D5
:1008600024FD03C01092E00108954091E2015091EF
:10087000E3016091E4017091E501452B462B472B84
:1008800069F30097A105B10541F025E32A95F1F739
:1008900000000197A109B109E1CF8091E1010C9419
:1008A0009F011F920F920FB60F9211242F933F9327
:1008B0008F939F93AF93BF938091090290910A0207
:1008C000A0910B02B0910C023091080223E0230F9B
:1008D0002D3758F50196A11DB11D20930802809374
:1008E000090290930A02A0930B02B0930C0280912C
:1008F0000D0290910E02A0910F02B091100201968C
:10090000A11DB11D80930D0290930E02A0930F02C2
:10091000B0931002BF91AF919F918F913F912F9112
:100920000F900FBE0F901F90189526E8230F029688
:10093000A11DB11DD2CF1F920F920FB60F9211249D
:100940002F933F934F935F936F937F938F939F93D7
:10095000AF93BF93EF93FF938091B900887F803668
:1009600009F44AC0F0F5883209F4A7C018F58031BF
:1009700009F49BC0B8F4882309F4F9C0883009F45D
:1009800094C0FF91EF91BF91AF919F918F917F9113
:100990006F915F914F913F912F910F900FBE0F90EC
:1009A0001F901895883109F488C0803251F78093E0
:1009B000DE0114C0803409F49DC040F48033B9F3E3
:1009C0008833F9F68093DE0185ECB0C0803509F4F8
:1009D00085C0883509F496C0883499F60E941904B8
:1009E000D0CF883909F48CC038F5883729F050F415
:1009F000883611F0803729F683E08093E001109269
:100A0000B90157C0883809F47BC0803919F08038A3
:100A100009F0B7CF8091B901803208F071C0E09140
:100A2000B90181E08E0F8093B9018091BB00F0E0A5
:100A3000E756FE4F80833DC0803B39F0E0F4803ABA
:100A400009F479C0883A09F09CCF84E08093E001F2
:100A50001092980110929701E0911302F091140204
:100A600009958091970181110FC081E080939701D2
:100A70001092770109C0803C09F4A6CF883C09F4A4
:100A8000A3CF883B09F07DCFE091980181E08E0FE4
:100A900080939801F0E0E958FE4F80818093BB007D
:100AA000909198018091970129C08091BB0180931A
:100AB000BB0085EC8093BC0064CF9091DD018091F8
:100AC000DC01981758F5E091DD0181E08E0F8093ED
:100AD000DD01F0E0E454FE4F8081E9CFE091DD01DB
:100AE00081E08E0F8093DD018091BB00F0E0E45443
:100AF000FE4F80839091DD018091DC019817C8F250
:100B000085E8D8CFE091DD0181E08E0F8093DD0193
:100B10008091BB00F0E0E454FE4F80838091DF01C0
:100B200081115CCF81E08093BA0184EA8093BC009C
:100B30001092E00126CF85EC8093BC001092E0017A
:100B40008091B901803230F4E091B901F0E0E756CC
:100B5000FE4F10826091B90170E0E0911102F091B6
:100B6000120289E991E009951092B9010ACF109219
:100B7000DE0134CFE9E1F2E01382128288EE93E0E5
:100B8000A0E0B0E084839583A683B7838CE091E0F6
:100B900091838083E5E2F2E0138212828EE191E09C
:100BA0009183808387E2848380E1818782E08287EA
:100BB00013860895789484B5826084BD84B581607D
:100BC00084BD85B5826085BD85B5816085BD809118
:100BD0006E00816080936E00109281008091810090
:100BE0008260809381008091810081608093810088
:100BF000809180008160809380008091B10084604A
:100C00008093B1008091B00081608093B0008091AA
:100C10007A00846080937A0080917A008260809369
:100C20007A0080917A00816080937A0080917A00C6
:100C3000806880937A001092C1001092180210927E
:100C4000170210921602109215020E94810187E885
:100C500090E0909314028093130288E890E09093C0
:100C600012028093110210922A0280912F02823088
:100C700018F098E090932A0280932D0262E370E0CE
:100C800080E090E00E9427016091300285E292E0CE
:100C90000E94460268EE73E080E090E00E94270127
:100CA00060E385E292E00E948B03CBE4D6E4CE01C0
:100CB0000197F1F760E385E292E00E948B032197B0
:100CC000F1F760E385E292E00E948B0383E592E016
:100CD0000197F1F760E285E292E00E948B03609158
:100CE0002A02606240E085E292E00E94A40384E070
:100CF00080932B0240E06CE085E292E00E94A40326
:100D00000E94BB0382E080932C0240E066E085E213
:100D100092E00E94A40340E062E085E292E00E943B
:100D2000A4038BE39FE10197F1F788E08093300201
:100D300060E085E292E00E944602E1EBF0E024915F
:100D4000EDE9F0E08491882399F090E0880F991FF5
:100D5000FC01EA57FF4FA591B491FC01E458FF4F05
:100D6000859194918FB7F894EC91E22BEC938FBF1F
:100D700080E00E94C60386E291E00E947E0381E04B
:100D80000E94C6038EE291E00E947E0368EE73E04B
:100D900080E090E00E9427010E94BB0380E4B82E0F
:100DA00000E010E0B0927C0080917A008064809333
:100DB0007A0080917A0086FDFCCF80917800C09106
:100DC0007900DC2FC82F6E010D2E000CEE08FF08F5
:100DD000C53F81E0D8073CF10E94BB0361E08DE094
:100DE0000E94B60080E00E94C6038BE391E00E945F
:100DF0007E034AE0C701B6010E94300381E00E94F1
:100E0000C60385E491E00E947E0368EE73E080E013
:100E100090E00E9427010E94BB030115110511F209
:100E20000E940000BFCF0E94BB0360E08DE00E94E3
:100E3000B60080E00E94C6038BE391E00E947E032F
:100E4000D7FF0AC0C701B6010E94FD0381E00E94DE
:100E5000C6038EE491E0D7CF4AE0C701B6010E94F5
:100E60003003F4CFA1E21A2EAA1BBB1BFD010DC05B
:100E7000AA1FBB1FEE1FFF1FA217B307E407F5074A
:100E800020F0A21BB30BE40BF50B661F771F881F26
:100E9000991F1A9469F760957095809590959B01BC
:100EA000AC01BD01CF010895EE0FFF1F0590F49135
:100EB000E02D0994F894FFCF000040001400540086
:100EC000000000001702EA012D03C001E301D00178
:100ED000C10100000000F70389002D03590164756A
:100EE000796C6F6E670063616D206269656E204189
:100EF0002F5300677420616E616C6F670064656ECC
:0E0F00002073616E670064656E20746174007A
:107E0000112484B714BE81FFF0D085E080938100F7
:107E100082E08093C00088E18093C10086E0809377
:107E2000C20080E18093C4008EE0C9D0259A86E02C
:107E300020E33CEF91E0309385002093840096BBD3
:107E4000B09BFECF1D9AA8958150A9F7CC24DD24C4
:107E500088248394B5E0AB2EA1E19A2EF3E0BF2EE7
:107E6000A2D0813461F49FD0082FAFD0023811F036
:107E7000013811F484E001C083E08DD089C08234E0
:107E800011F484E103C0853419F485E0A6D080C0E4
:107E9000853579F488D0E82EFF2485D0082F10E0AE
:107EA000102F00270E291F29000F111F8ED06801E7
:107EB0006FC0863521F484E090D080E0DECF843638
:107EC00009F040C070D06FD0082F6DD080E0C81688
:107ED00080E7D80618F4F601B7BEE895C0E0D1E017
:107EE00062D089930C17E1F7F0E0CF16F0E7DF06D8
:107EF00018F0F601B7BEE89568D007B600FCFDCFD4
:107F0000A601A0E0B1E02C9130E011968C91119780
:107F100090E0982F8827822B932B1296FA010C0160
:107F200087BEE89511244E5F5F4FF1E0A038BF0790
:107F300051F7F601A7BEE89507B600FCFDCF97BE46
:107F4000E89526C08437B1F42ED02DD0F82E2BD052
:107F50003CD0F601EF2C8F010F5F1F4F84911BD097
:107F6000EA94F801C1F70894C11CD11CFA94CF0C13
:107F7000D11C0EC0853739F428D08EE10CD085E9AC
:107F80000AD08FE07ACF813511F488E018D01DD067
:107F900080E101D065CF982F8091C00085FFFCCF94
:107FA0009093C60008958091C00087FFFCCF809118
:107FB000C00084FD01C0A8958091C6000895E0E648
:107FC000F0E098E1908380830895EDDF803219F02E
:107FD00088E0F5DFFFCF84E1DECF1F93182FE3DFCA
:107FE0001150E9F7F2DF1F91089580E0E8DFEE27F6
:047FF000FF270994CA
:027FFE00040479
:00000001FF
