:020000040800F2
:100000004005002069020008DD0A0008D90A00083E
:10001000DB0A000875030008890B000800000000D7
:10002000000000000000000000000000A90100081E
:10003000770300080000000005020008DF0A00083E
:10004000830200088302000883020008830200087C
:10005000830200088302000883020008830200086C
:10006000830200088302000883020008830200085C
:10007000830200088302000883020008830200084C
:1000800083020008830200088302000800000000C9
:1000900000000000000000000000000083020008D3
:1000A000830200088302000883020008830200081C
:1000B000830200088302000883020008830200080C
:1000C00083020008830200088302000883020008FC
:1000D0008302000883020008830200080000000079
:1000E0008302000883020008830200080000000069
:1000F0000000000000000000000000008302000873
:100100000000000083020008830200088302000848
:1001100000000000000000000000000000000000DF
:10012000830200088302000883020008830200089B
:100130008302000800000000000000000000000032
:100140000000000000000000000000008302000822
:10015000830200088302000883020008830200086B
:100160008302000883020008000000000000000075
:10017000000000000000000000000000000000007F
:1001800000000000830200080000000000000000E2
:1001900083020008DFF80CD000F0DAF800480047CE
:1001A000C90B0008400500202C4B19680868B0E80E
:1001B000F04F80F30988BFF36F8F4FF0000080F39A
:1001C000118870470000000008480068006880F34C
:1001D00008884FF0000080F3148862B661B6BFF360
:1001E0004F8FBFF36F8F00DF00BF00BF08ED00E04F
:1001F000DFF80C00016841F470010160704700BF36
:1002000088ED00E0EFF30980BFF36F8F134B1A689E
:100210001EF0100F08BF20ED108A20E9F04F10608B
:1002200009B44FF0500080F31188BFF34F8FBFF334
:100230006F8F00F031FD4FF0000080F3118809BC92
:1002400019680868B0E8F04F1EF0100F08BFB0EC56
:10025000108A80F30988BFF36F8F70471000002069
:10026000EFF30580704700000648804706480047C6
:10027000FEE7FEE7FEE7FEE7FEE7FEE7FEE7FEE756
:10028000FEE7FEE76D0B0008950100082DE9F05F21
:100290000546002092469B468846064681464024F5
:1002A0001BE0284641464746224600F041F85346A7
:1002B0005A46C01A914110D311461846224600F002
:1002C00028F82D1A67EB01084F462246012000212D
:1002D00000F01FF817EB00094E41201EA4F10104A5
:1002E000DFDC484631462A464346BDE8F09FD2B29D
:1002F00001E000F8012B491EFBD270470022F6E70F
:1003000010B513460A4604461946FFF7F0FF20468B
:1003100010BD202A04DB203A00FA02F100207047C9
:100320009140C2F1200320FA03F319439040704733
:10033000202A04DB203A21FA02F00021704721FA3A
:1003400002F3D040C2F120029140084319467047A1
:10035000064C074D06E0E06840F0010394E8070012
:1003600098471034AC42F6D3FFF718FF140E00087C
:10037000340E0008FEE770472DE9F84F00224FF0D9
:10038000010803254FF00F0E0B6808FA02F4234012
:10039000A34271D14E68012E05D0022E03D0112E3A
:1003A00001D0122E15D18668570005FA07FC26EAFF
:1003B0000C06D1F80CC00CFA07FC4CEA060CC0F88D
:1003C00008C04668A6430C79C4F300149440344333
:1003D0004460C668570005FA07FC8C6826EA0C06DC
:1003E000BC403443C4604C68022C01D0122C13D1A1
:1003F000D40800EB8404A346D4F8209054074FEAB5
:10040000D46A0EFA0AF629EA06090E6906FA0AF60D
:1004100046EA0906CBF8206004680E7924EA0C0449
:1004200006F00306BE40264306604C68E40056D53D
:100430002E4C266846F480462660246822F0030687
:1004400004F4804400942A4C3444A446D4F8084868
:100450009607370F0EFA07F6B443264EB04201D185
:10046000002615E0244EB04201D1012610E0234EB3
:10047000B04202D102260BE031E0214EB04201D160
:10048000032605E01F4EB04201D1042600E00726F6
:10049000BE402643CCF808681B4E34684F689C4326
:1004A000FF0300D51C433460174E361D34684F6877
:1004B0009C43BF0300D51C433460134E0836346898
:1004C0004F689C43FF0200D51C4334600E4E0C362F
:1004D00034684F689C43BF0200D51C433460521CF3
:1004E000102AFFF451AFBDE8F88F000044380240F5
:1004F00000300140000002400004024000080240B9
:10050000000C024000100240003C0140006908401D
:1005100000D0012070470AB1816170470904FBE7F0
:100520000148806870470000000000200248816890
:1005300002781144816070470000002070B50D4DB5
:1005400004464FF47A712878B1FBF0F00A49096843
:10055000B1FBF0F000F0ACFA48B9102C07D2002241
:100560002146501E00F00AF800206C6070BD01208A
:1005700070BD0000000000200C000020F0B40E4B05
:100580001B680C46C3F30223C3F10705042D00D9F1
:100590000425191D072901D2002300E0DB1E0126D6
:1005A00006FA05F1491E214099409E40761E1640EC
:1005B0003143F0BC00F0E9BA0CED00E02DE9F04762
:1005C0000E46050065D0DFF81481D8F80000F7B2B8
:1005D00000F00F00B04207D288F80070D8F8000091
:1005E00000F00F00B04254D128683D4C810712D56D
:1005F000400703D5206840F4E050206028780007C9
:1006000003D5206840F4604020602068A96820F08D
:10061000F000084320602878C0072DD03049686872
:100620000839012812D0022813D0032811D00968F4
:10063000890700292DDA216821F003010143216097
:10064000FFF76EFF814641F2883A0EE009688903A0
:10065000EFE709688901ECE7FFF762FFA0EB09010A
:10066000514502D90320BDE8F0872068696800F091
:100670000C00B0EB810FEFD1D8F80010404601F02C
:100680000F01B14207D90770006800F00F00B042B7
:1006900001D00120E7E72878400705D52068E96800
:1006A00020F4E050084320602878000706D5206831
:1006B000296920F4604040EAC100206000F018F889
:1006C0002168084AC1F30311515CC840064908601B
:1006D00006480068FFF732FF0020C4E7003C0240F4
:1006E00008380240040E00080C000020040000201E
:1006F000154810B5006810F00C02144813D01449C6
:10070000042A0FD0082A0ED10F4C241F2268236818
:1007100002F03F025B0207D52068C0F38810A0FBFF
:10072000010106E0084610BD2168C1F38811A1FB54
:1007300000010023FFF7AAFD2168C1F30141491C14
:100740004900B0FBF1F010BD083802400024F4006D
:1007500040787D012DE9F84F04006ED02078DFF855
:100760003C93C007A9F104054AD009F104000168CF
:10077000C1F38101012908D00068C0F3810002287B
:100780000AD1D9F80000400206D52868800337D581
:1007900060680028E1D033E06068B0F5803F10D099
:1007A000B0F5A02F286810D020F480302860286889
:1007B00020F4802028606068A8B1FFF7B1FE0646EB
:1007C0000DE0286840F48030F4E740F48020286091
:1007D000F7E700BFFFF7A4FE801B642873D82868E2
:1007E0008003F7D50CE0FFF79BFE064605E000BF4F
:1007F000FFF796FE801B6428F0D828688003F7D4A2
:100800002078DFF89C8280074FF0000A3ED5A3488D
:10081000001D016811F00C0F08D00068C0F38100C2
:1008200002280BD1D9F80000400207D428688007BD
:1008300016D5E068012800D112E02BE1E068B8B1DC
:100840000120C8F80000FFF76BFE064605E000BF78
:10085000FFF766FE801B0228C0D828688007F7D5FE
:100860002868216920F0F80040EAC10028600DE006
:10087000C8F800A0FFF754FE064604E0FFF750FE5C
:10088000801B02281FD828688007F7D4207800072B
:1008900022D5824E83486169703671B101210160B1
:1008A000FFF73EFE074604E0FFF73AFEC01B0228B2
:1008B00009D830688007F7D50EE0C0F800A0FFF730
:1008C0002FFE074605E082E0FFF72AFEC01B022844
:1008D0007DD830688007F7D42078400768D5DFF8E6
:1008E000BCB100270BF13C0BDBF80000C0000BD4BF
:1008F000DBF8001041F08051CBF80010DBF800006D
:10090000012700F080500090674E3068C00510D479
:10091000306840F480703060FFF702FE009005E020
:10092000FFF7FEFD0099401A022850D83068C00534
:10093000F6D55A4EA0686C3601280FD005283068CD
:1009400010D020F001003060306820F004003060EA
:10095000A068B8B1FFF7E4FD00900FE0306840F008
:100960000100F4E740F004003060F7E7FFF7D8FD3E
:100970000099411A41F28830814266D83068800778
:10098000F4D50EE0FFF7CCFD009007E0FFF7C8FDBF
:100990000099411A41F28830814256D83068800768
:1009A000F4D42FB1DBF8001021F08051CBF8001007
:1009B000A069C8B33949091D0968C1F38101022939
:1009C0004AD00228504607D0C8F8600000E03CE05A
:1009D000FFF7A6FD04463BE04746C8F86000FFF776
:1009E0009FFD064605E000BFFFF79AFD801B022829
:1009F0002BD828688001F7D4D4E907010843A16AFD
:100A00002A4A490802EB0141626A41EA821108431D
:100A100094F82C1040EA0161C9F8001001203866F2
:100A2000FFF77EFD044606E036E000BFFFF778FDE5
:100A3000001B022809D828688001F7D52CE000BFE8
:100A4000FFF76EFD001B022802D90320BDE8F88FD6
:100A500028688001F4D41FE00128F7D0D9F80000FD
:100A6000E26900F48001914214D1226A00F03F0152
:100A700091420FD147F6C071626A0140914209D19B
:100A8000A26A00F44031914204D1E16A00F0706042
:100A9000884201D00120D9E70020D7E7043802407E
:100AA00000004742800E4742007000400000FFFFF8
:100AB00010B5401EB0F1807F01D3012010BD4FF072
:100AC000E02460610F21601700F05FF80020A06152
:100AD00007202061002010BDFEE7FEE7704710B53B
:100AE000FFF724FD00F01CF9012803D0BDE81040F9
:100AF00000F000B910BD000010B592B0302168467A
:100B0000FFF7FCFB14210CA8FFF7F8FB15480024A5
:100B1000016841F080510160006800F08050119040
:100B20001148016821F4404141F40041016000682E
:100B3000069400F4404011900220009001200390A0
:100B4000102004906846FFF705FE0F20CDE90C0445
:100B50008020CDE90E0400210CA81094FFF72EFD93
:100B600012B010BD403802400070004005480168D6
:100B700041F47001016003494FF000608039086062
:100B80007047000088ED00E0FEE70907090E002825
:100B900004DB00F1E02080F80014704700F00F0043
:100BA00000F1E02080F8141D704702E008C8121F11
:100BB00008C1002AFAD170477047002001E001C146
:100BC000121F002AFBD1704786B0FFF795FF142152
:100BD0006846FFF793FB16480025016841F00101C4
:100BE0000160006842F2010400F001006604059013
:100BF0002A4621463046FFF78EFC0120CDE9004011
:100C00000220CDE9025069463046FFF7B5FB094C9A
:100C10004FF4005501212046FFF778FC012805D04C
:100C2000002229462046FFF776FCF3E70122F8E789
:100C300030380240000C024006484168096829B17A
:100C40004168C968C9684968016370474FF0FF315E
:100C5000FAE7000010000020D0E9013201699A6033
:100C6000D0E901235A604A68824201D182684A6011
:100C7000002202610868401E0860086870474268E8
:100C80004A6093688B60936859609160086101685D
:100C9000491C0160704700001448816B11B10121AB
:100CA00041627047002141628169B1FA81F1C1F16D
:100CB0001F0101EB81020E4951F822306BB101EBAB
:100CC000820101F108034A6852684A609A4201D1E0
:100CD00052684A60D16801607047502080F31188E3
:100CE000BFF34F8FBFF36F8FFEE7000010000020AF
:100CF0004C00002010B5502080F31188BFF34F8FB7
:100D0000BFF36F8F00F01AF818B104494FF080500C
:100D10000860002080F3118810BD000004ED00E0A1
:100D20000548C16919B1806B18B1002070470120D6
:100D30007047022070470000100000202DE9F041AC
:100D40002E4C0027A06B40B1206A401C2062606AD4
:100D500000B101273846BDE8F0816669761C6661FE
:100D600013D16068006838B1502080F31188BFF358
:100D70004F8FBFF36F8FFEE76068A1686160A0606E
:100D8000A06A401CA062FFF757FF206BDFF870805D
:100D9000864209D36068006880B16068C068C56831
:100DA000686886420DD220632068C06A00EB80012B
:100DB00058F821000128CAD90127C8E74FF0FF30B1
:100DC000F1E7281DFFF748FFA86A18B105F11800E0
:100DD000FFF742FFE86A0121A26981401143A16146
:100DE00000EB800108EB8100291DFFF748FFE86A4E
:100DF0002168C96A8842CDD30127CBE710000020C3
:100E00004C0000200000000000000000010203046C
:100E100006070809340E0008000000204C000000FE
:100E2000AA0B0008800E00084C000020F40400000B
:100E3000BA0B0008010000001000000000000000D4
:100E40000024F4000000000000000000000000008A
:100E50000000000000000000000000000000000092
:100E60000000000000000000000000000000000082
:100E70000000000000000000000000000000000072
:040000050800019559
:00000001FF
